:020000040800F2
:10000000D00A00200D020008512F0008012E000820
:10001000052E000839130008094E000800000000F2
:100020000000000000000000000000000146000881
:100030003D13000800000000D5450008CD4600082B
:1000400027020008270200082702000827020008EC
:1000500027020008270200082702000827020008DC
:1000600027020008270200082702000827020008CC
:1000700027020008270200082702000827020008BC
:1000800027020008270200082702000827020008AC
:100090002702000827020008270200085913000859
:1000A000270200082702000827020008270200088C
:1000B000270200082702000827020008270200087C
:1000C000270200082702000827020008270200086C
:1000D00027020008E54D0008270200082702000853
:1000E0004113000827020008270200082702000821
:1000F000270200082702000827020008270200083C
:10010000270200082702000827020008270200082B
:10011000054B000827020008D946000827020008FE
:10012000270200082702000827020008270200080B
:1001300000F002F800F05AF80AA090E8000C82449F
:100140008344AAF10107DA4501D100F04FF8AFF27C
:10015000090EBAE80F0013F0010F18BFFB1A43F0A5
:1001600001031847A45F0000C45F00000A4410F8B0
:10017000014B14F00F0508BF10F8015B240908BFFC
:1001800010F8014B6D1E05D010F8013B6D1E01F8F3
:10019000013BF9D1641E03D0641E01F8015BFBD161
:1001A0009142E4D37047000000230024002500267C
:1001B000103A28BF78C1FBD8520728BF30C148BFCA
:1001C0000B607047662905F04687642900F080803F
:1001D000002070471FB500F05DFB040000200021E7
:1001E00005F066F9E0601FBD10B510BD00F06EFCB3
:1001F0001146FFF7EFFF05F08BF800F08CFC03B41D
:10020000FFF7F2FF03BC04F031FE0000094880470D
:1002100009480047FEE7FEE7FEE7FEE7FEE7FEE7E8
:10022000FEE7FEE7FEE7FEE704480549054A064B00
:1002300070470000D546000831010008D0040020B6
:10024000D00A0020D0060020D00600207047000011
:100250000FB4044910B503AA029800F009FB10BCC2
:100260005DF814FB7C0000202DE9F0410E460446A9
:10027000002020622046E168884730B3252805D059
:10028000D4E901219047206A401CF2E7E16820464A
:1002900000278847050018D0A5F14100192802D889
:1002A00020354FF400673246294620462760FFF785
:1002B00089FF40B1012804D0F61D26F00706083654
:1002C000D8E7361DD6E72846DAE7206ABDE8F08190
:1002D0002DE9F0410646002410687529314616A51F
:1002E00010D0AFF30080002802DA404213A507E0E7
:1002F00031688A0701D512A502E0490704D511A586
:10030000012401E0AFF3008000210A2206F1240756
:1003100009E0B0FBF2FCB0FBF2F302FB1C00303052
:1003200078541846491C0028F3D123462A46304603
:10033000BDE8F04100F033B8000000002D000000DF
:100340002B000000200000004FF0000200B5134613
:1003500094469646203922BFA0E80C50A0E80C50E5
:10036000B1F12001BFF4F7AF090728BFA0E80C5096
:1003700048BF0CC05DF804EB890028BF40F8042B8F
:1003800008BF704748BF20F8022B11F0804F18BFFC
:1003900000F8012B704770477047704770472DE990
:1003A000F0470D4699469246044600F1240801683C
:1003B000880604D5E06921F01001216000E00120E9
:1003C000A84201DD471B00E00027A1697A1902EB72
:1003D0000900081AA0612078C00602D42046AFF3B5
:1003E0000080002608E0D4E901211AF806009047B1
:1003F000206A401C761C20624E45F4DB2078C00643
:100400000AD52046AFF3008006E0D4E90121302070
:100410009047206A401C2062381EA7F10107F4DCD7
:1004200007E0D4E9012118F805009047206A401C34
:100430002062281EA5F10105F3DC2046AFF3008001
:100440002078000602D50220BDE8F0870120FBE7F6
:1004500070472DE9FF4F0C461E464FF0FF378BB01B
:10046000D2E90001DDF860800A908A46C1F30A559E
:1004700005B93D46002108464FF00000BAF1000FD3
:1004800000F4400005DA00EB80004FF4400101EA7F
:1004900050004FEA9059B9F1010F00DDB9460A98B2
:1004A00050EA4A000ED044F61050A5F2FF354543FD
:1004B0002F14B8F1000F1ED07542291E1EDDC9F1A0
:1004C00000021CE0B8F1010F4FF0000001D0302114
:1004D00003E0F24305E02154401CB042FBDB304610
:1004E0000022002121540B99C1F80880C1E90020A5
:1004F0000FB0BDE8F08FBD1B6D1CDEE74A4600DA89
:10050000694206A800F068FA06AB93E8070003AB5F
:1005100083E8070050460A9900F046FB8DE8070083
:10052000A0F500501F3800900398002D0ADD42F21C
:100530001F014A460844002303A90390684600F0BF
:10054000AFFD09E0A0F500504A461F38002303A97B
:100550000390684600F0B9FD8DE807000004000C28
:1005600003D04FF0FF30410800E01046B8F1000F13
:1005700003D00022009215461EE0751E05D400F03F
:100580008DF9303262556D1EF9D5B346012208430C
:1005900002D000227F1C04E02078302801D1002204
:1005A0007F1E002A099784D01DE0112D07DA00F084
:1005B00075F9303262556D1C50EA0102F5D10843DD
:1005C00002D00098C8B10EE00021681E05E0235C4F
:1005D000625C63542254401E491C8142F7DBAB46E7
:1005E000A81B401E0990002004F80B000B98099AE4
:1005F000C0F80880C0E9002B7AE711264FF0000808
:1006000057E72DE9F04F88460446D21D22F0070136
:1006100091B0D1E90001CDE90A0104F0F7FB0246EF
:100620000B98C00F01D02D2007E02068810701D56D
:100630002B2002E0202101EAC000032A099001D00A
:10064000072A05DB03464146204600F085F90BE109
:100650002078800601D5E06900E00620B8F1650F3A
:10066000814606D0B8F1660F18D0B8F1670F70D187
:1006700031E00020B9F1110F009001DB112301E0FE
:1006800009F101030AAA01A90CA8FFF7E2FEDDE9BE
:100690000C70002609F10105834647E001204B4616
:1006A00000904FF000470AAA01A90CA8FFF7D1FE5D
:1006B000DDE90DB00C995D46002610B909F1010085
:1006C0000D18B9EB050003D4C0F1FF3609F101059F
:1006D000A5EB09002BE0B9F1010F01DA4FF0010998
:1006E0000020B9F1110F0090484601DD112300E010
:1006F00003460AAA01A90CA8FFF7ABFEDDE90C70BE
:100700004D4600268346207800070AD4AB4500DA20
:100710005D4601A8012D04DD411911F8011C3029A5
:1007200007D04F4502DA17F1040F04DA01208246A0
:100730000FE06D1EEEE7002F02DCED1B3E4403E0F0
:10074000781CA84200DD7D1CB81B00F1010A4FF0A7
:1007500000472078000703D4AA4501DB4FF0FF3A99
:100760000021B7F1004F0DF143088DF8431024D05C
:1007700002202B23002F01DA7F422D230A21021EA3
:10078000A0F1010000DC5FB197FBF1FC97FBF1F2F7
:1007900001FB1C7C17460CF1300C08F801CDEEE78C
:1007A000A8F1010003702188090501D5452100E069
:1007B0006521A0F1010800F8011C09980FA9A1EB1F
:1007C0000807FF1D00B10120411901EBEA70A16982
:1007D0003844081A401EA0612078C00602D4204682
:1007E000AFF30080099828B1D4E901219047206A2D
:1007F000401C20622078C00622D52046AFF300803E
:100800001EE0002E04DBB34502DD01A8805D00E0A0
:100810003020D4E901219047206A401C2062761CD8
:10082000AAF101005FEA000A0AD100F033F8C068BB
:100830000168405CD4E901219047206A401C206295
:10084000281EA5F10105DCDC07E0D4E9012118F838
:10085000010B9047206A401C2062381EA7F1010757
:10086000F3DC2046AFF30080032011B041E6000026
:10087000074B70B50D467B4400F05BF804462846F4
:1008800000F01CF910B14FF0FF3070BD204670BD74
:10089000B3470000004870479004002030B5B0F125
:1008A0000A024FEA900E71F100034EEA817EB0EB2E
:1008B0000E0061EB91014FEA101E4EEA017E10EB33
:1008C0000E0041EB11114FEA102E4EEA016E10EBB3
:1008D0000E0041EB11214FEA104E4EEA014E10EB93
:1008E0000E0041EB1141401841F100014FEAD000E8
:1008F00040EA41704FEAD10110EB80054FEA8104D4
:1009000044EA907444EB01046D1944EB0404521B57
:10091000A3414FF0000348BF0A3200D530BD401C50
:1009200041F1000130BD000001694A1C02610878F4
:10093000704700B58FB0CDE901310021059105491F
:100940007944CDE9031011466846FFF78DFC0FB0DE
:1009500000BD0000E5FFFFFF2DE9F0411F46044602
:1009600003260168072A01F4006004DB08B116A51C
:1009700005E016A503E008B115A500E015A521F0D6
:1009800010002060A069C01EA0610FB1401EA061D0
:100990002046AFF300804FB1D4E90121384690479B
:1009A000206A401C2062C01C206206E0206AFAE730
:1009B000D4E9012115F8010B9047761EF8D22046A4
:1009C000AFF30080BDE8F0814E414E006E616E00D5
:1009D000494E4600696E66002DE9F047814616468D
:1009E0008AB0354878440DC88DE80D003248784407
:1009F000801C03AC0DC884E80D0041F69B30084410
:100A0000372190FBF1F290FBF1F5A5F1800501FB98
:100A100012041B3C02D56442012000E00020DFF8F4
:100A200098A080460027FA44AAF1BE0A0EE0E0072B
:100A30000AD03246684607EB470101230AEB8101E1
:100A400000F043FB8DE8070064107F1C002CEED102
:100A5000194F7F44AE3F19E0E80715D007EB0410AB
:100A60000DF1180A90E80E008AE80E00C068F04206
:100A700001D1981908903246012306A903A800F075
:100A800024FB03AB83E807006D10641C002DE3D149
:100A90004FF0010332466946B8F1000F03A802D0B7
:100AA00000F0FEFA01E000F010FBC9E90001C9F80E
:100AB00008200AB0BDE8F08708570000007B00F06E
:100AC0008000704700487047700400207546FFF7AB
:100AD000F9FFAE4605006946534620F007008546FB
:100AE00018B020B5FFF7A0FBBDE820404FF000068E
:100AF0004FF000074FF000084FF0000B21F0070106
:100B0000AC46ACE8C009ACE8C009ACE8C009ACE848
:100B1000C0098D46704710B50446AFF300802046EB
:100B2000BDE81040FFF76BBB4FF0013C50F8042BC1
:100B300051F8043B9A4221D1A2EB0C03934313EAF0
:100B4000CC1317D150F8042B51F8043B9A4215D11D
:100B5000A2EB0C03934313EACC130BD150F8042BF4
:100B600051F8043B9A4209D1A2EB0C03934313EAD8
:100B7000CC13DBD04FF00000704700BFD01A01BA91
:100B8000B1FA81F101F0180122FA01F0CB40C1F174
:100B90002001DBB2C0B2C01A2CFA01F3D11A914382
:100BA00011EAC311E6D170475FEA400C08BF91F02B
:100BB000000F4FEA8C234FEAC12243EA51514FEA1A
:100BC0001C5018BF00F5F0404FEA300018BF41F04C
:100BD00000415FEA6C5C00F02980BCF1FF3F08BF78
:100BE00040F080407047130C06BF12044FF0100C09
:100BF0004FF0000C130E04BF12020CF1080C130F7F
:100C000004BF12010CF1040C930F04BF92000CF10D
:100C1000020CD30F04BF52000CF1010C11464FF02F
:100C20000002A0F11F00A0EB0C00704711F0004F74
:100C300008BF704731F000413FF4D5AF0B0C06BF41
:100C400009044FF0100C4FF0000C0B0E04BF09020A
:100C50000CF1080C0B0F04BF09010CF1040C8B0FF5
:100C600004BF89000CF1020CCB0F04BF49000CF14A
:100C7000010CCCF12003A0EB0C0022FA03F302FAE2
:100C80000CF241EA030100F10100704720F07F4CB3
:100C900080EA030023F07F47ACEB070303F57C53A6
:100CA00000F0004003F1FF032DE980494FEA154BA6
:100CB00009B44FEA144325EA0B4E24EA03480FF225
:100CC000042606EB132749083E785FEA320203FB4D
:100CD0000667C7F5000707FB06F64FEA54374FEAE9
:100CE000D64606F1020607FB066CCCF1005C4FEA23
:100CF0001C472CEA074C07FB06F40CFB06F504EB3B
:100D000015464FEA961634BF00204FF000404FEAD8
:100D1000D13706FB07FC4FEA1C4C0CFB0BF7D21B30
:100D200003FB0CF761EB07010CFB0EF7B0EB074080
:100D300072EB17420CFB08F734BFA2EB0742B2EB91
:100D4000074261EB17414FEA0C444FEA910706FB5B
:100D500007FC4FEA1C4C0CFB0BF7B0EBC74072EBE7
:100D6000573203FB0CF734BFA2EBC742B2EBC742CA
:100D700061EB57310CFB0EF7B0EBC70072EB57720B
:100D80000CFB08F734BFA2EBC702B2EBC70261EB62
:100D90005771039F4FEA816141EA921104EBCC0441
:100DA0004FEAD1374FEA826206FB07FC42EA901213
:100DB0004FEA80604FEA1C4C0CFB0BF7D21B03FB85
:100DC0000CF761EB07010CFB0EF7B0EB074072EB81
:100DD00017420CFB08F734BFA2EB0742B2EB074205
:100DE00061EB17414FEA8C554FEA910704EB9C24C5
:100DF00006FB07FC4FEA1C4C0CFB0BF7B0EBC740A3
:100E000072EB573203FB0CF734BFA2EBC742B2EBD5
:100E1000C74261EB57310CFB0EF7B0EBC70072EB2A
:100E200057720CFB08F734BFA2EBC702B2EBC70244
:100E300061EB577115EB4C254FEA816141EA921144
:100E40004FEA82624FEAD13742EA901206FB07FC72
:100E500044F100044FEA80604FEA1C4C0CFB0BF796
:100E6000D21B03FB0CF761EB07010CFB0EF7B0EB99
:100E7000074072EB17420CFB08F734BFA2EB0742A6
:100E8000B2EB074261EB174115EB1C154FEA8131BC
:100E900041EA92414FEA823242EA90424FEA803080
:100EA0004FEA0C7644F1000448EA03434EEA0B484B
:100EB0004FF0000EB2EB080C71EB030724BF624643
:100EC00039464EEB0E0E4FF0000B001852414941CF
:100ED0004BEB0B0BB2EB080C71EB03077BF1000B38
:100EE00024BF624639464EEB0E0E4FF0000B001841
:100EF000524149414BEB0B0BB2EB080C71EB030772
:100F00007BF1000B24BF624639464EEB0E0E51EAD0
:100F1000020718BF46F0010616EB0E7655F10002E7
:100F200054F1000103D5BDE88901BDE80088BDE8A2
:100F30008901BDE80048B619524141EB0101A3F116
:100F40000103704780807F7E7D7C7B7A797877761D
:100F500076757473727171706F6E6E6D6C6C6B6A96
:100F60006A69686867666665646463636261616034
:100F7000605F5F5E5E5D5D5C5C5B5B5A5A595958B1
:100F8000585757565655555554545353525252511B
:100F9000515050504F4F4F4E4E4D4D4D4C4C4C4B71
:100FA0004B4B4A4A4A4949494848484747474746B8
:100FB00046464545454444444443434343424242F4
:100FC00042414141002B9C4630D477002BD01CB5C8
:100FD0004FEA370703B44FF010004FF01001BAF199
:100FE000000F06D0BCF1000FDCBF40F0080040F05D
:100FF00008014FF000000FBCBDE810400BF1010BE1
:10100000BBF1010F08BF5FEA170722BF12F101020F
:1010100011F101014FF0004143F1000300F00040E5
:1010200043EA00007047F9D35708D0E746EA06467E
:1010300013F1400F4FEA16461FDD13F1200FDFBFFB
:1010400016430A46002120335B42BED0C3F120077D
:1010500046EA064602FA07F74FEA164646EA070648
:10106000C3F1200722FA03F201FA07F721FA03F18C
:101070004FF0000342EA0702A7E746EA020646EA03
:1010800006464FEA164646EA0106BCBF46EA064651
:10109000360C4FF000034FF000024FF0000194E7D0
:1010A0002DE9804C9A46934670B491E8380007C801
:1010B00031EA400C48BF34EA430C03D5FFF7E6FDA4
:1010C000FFF780FFF0BCBDE8008C2DE9804C9A460C
:1010D000934670B491E8380007C810F0804F08BFFD
:1010E00013F0804F03D100F005F8FFF76BFFF0BC61
:1010F000BDE8008C20F07F4780EA030023F07F4C9E
:1011000007EB0C03A3F57C5300F00040A3F1FE03B2
:1011100092F0000F00F0B38095F0000F00F07780A0
:101120002DE901494FEA11404FEA144621EA0048EF
:1011300000FB06FC24EA064708FB06F607FB08F856
:1011400000FB07F718EB06484CEB164C4FEA124B26
:1011500018EB07484FEA15464CEB174022EA0B4EB6
:101160000BFB06FC25EA06470EFB06F607FB0EFE08
:101170000BFB07F71EEB064E4CEB164C4FF0000630
:101180001EEB074E4CEB174B18EB0B0840F1000021
:1011900018EB0E0B58EB000840F100008F1A4FF0CF
:1011A00000013CBFC943661B14BFB5EB040C002112
:1011B0003CBFC943F61B4FEA17444EEA8E0E27EA9E
:1011C00004454FEA1C4704FB07622CEA074C05FB69
:1011D00007F70CFB05F604FB0CFC16EB074642EB8D
:1011E000174216EB0C4642EB1C421BEB060658EB73
:1011F0000202414146EA9E0601D5BDE80189B619C1
:10120000524141EB0101A3F10103BDE801894FEA1D
:1012100014454FEA114724EA054621EA074C05FB2D
:1012200007F406FB07F70CFB06F105FB0CFC11EBC2
:10123000074144EB17444FEA124711EB0C4144EBD2
:101240001C4422EA074C05FB07F206FB07F70CFBE0
:1012500006F605FB0CFC16EB074642EB174216EBB5
:101260000C4642EB1C456A1854F1000148BF704718
:10127000B619524141EB0101A3F10103704795F00A
:10128000000F37D04FEA11424FEA144721EA0246D5
:1012900024EA074C02FB07F106FB07F70CFB06F4F8
:1012A00002FB0CFC14EB074441EB17414FEA1547D6
:1012B00014EB0C4441EB1C4125EA074C02FB07F5FB
:1012C00006FB07F70CFB06F602FB0CFC16EB0746C9
:1012D00045EB174516EB0C4645EB1C42121951F134
:1012E000000148BF7047B619524141EB0101A3F11B
:1012F000010370474FEA14454FEA114724EA0546B7
:1013000021EA074C05FB07F106FB07F70CFB06F289
:101310004FF0000605FB0CFC12EB074241EB1741B6
:1013200012EB0C4251EB1C4148BF7047921841EB45
:101330000101A3F10103704700BFFEE77047000001
:1013400010B54FF4004000F0B7F94FF400400149E8
:10135000086010BD1404014010B54FF4007000F097
:10136000ABF94FF400700149086010BD140401404E
:101370002DE9F0474848008818B1474800880428FC
:1013800003D14648046845681EE0434800880128A8
:1013900003D143480468456816E03F4800880228A6
:1013A00003D14048046845680EE03B4800880328A4
:1013B00003D13D480468456806E0374800880528A1
:1013C00002D136480468056838484168284604F068
:1013D000CDFD814635484168284604F0C7FD824668
:1013E000494604F0BBFC074630480168204604F03B
:1013F000BDFD81462D480168204604F0B7FD8246B8
:10140000494604F0ABFC8046394604F0F7FA06463C
:101410002749304604F06EFC11D81F48008870B18F
:101420001D48008805280AD01B480088401C1A491E
:10143000088000201F4908601F4908602AE01648FC
:101440000088C8B94FF08141304604F053FC13D8EE
:101450001A480078401C194908700846007814287A
:1014600018DB0D480088401C0B49088000201149FA
:101470000860114908600DE007480088052809D177
:101480000F480088401C0E49088000200949086068
:1014900009490860BDE8F087660100204800002087
:1014A000500000205800002060000020680000204C
:1014B0000000A040AC000020B000002098000020F8
:1014C0009A00002070B50446002594F821000228F7
:1014D00003D00420A0630125C1E02068006820F04B
:1014E0000E00216808602068006820F00100216873
:1014F00008605C492068884252D95A497839206886
:10150000884201D1012047E0564964392068884269
:1015100001D1102040E0534950392068884201D160
:10152000801539E04F493C392068884201D1801448
:1015300032E04C4928392068884202D14FF480308B
:101540002AE0484914392068884202D14FF48010BB
:1015500022E044492068884201D140041CE042490D
:101560002068884201D1012016E03F4914312068EB
:10157000884201D110200FE03B4928312068884281
:1015800001D1801508E038493C312068884201D1FA
:10159000801401E04FF480303349091F086051E0A6
:1015A000304978392068884201D1012047E02D492F
:1015B00064392068884201D1102040E0294950391F
:1015C0002068884201D1801539E026493C392068DD
:1015D000884201D1801432E02249283920688842AB
:1015E00002D14FF480302AE01E4914392068884225
:1015F00002D14FF4801022E01A492068884201D1BC
:1016000040041CE018492068884201D1012016E0FE
:10161000154914312068884201D110200FE0124989
:1016200028312068884201D1801508E00E493C31FC
:101630002068884201D1801401E04FF480300949CC
:1016400080394860012084F8210000BF002084F820
:10165000200000BF606B10B12046616B88472846B0
:1016600070BD0000800002400804024010B504462E
:10167000142003F027FCB4F5007F07D14FF400716C
:10168000094800F0C7F908B903F06AF9B4F5004F4A
:1016900009D14FF40041054800F0BCF918B90449DC
:1016A000044803F001F810BD001801400014014087
:1016B0000000D7440060EA4410B5044604480068BE
:1016C000204020B1024804602046FFF7CFFF10BD44
:1016D000140401402DE9F847024600239C467BE1B3
:1016E0004FF0010808FA03F4D1F8008008EA04007A
:1016F000A0427DD1DFF8F4A2D1F80480A8EB0A095A
:10170000D0453AD014DCB8F1030F50D009DCB8F161
:10171000000F31D0B8F1010F1CD0B8F1020F49D140
:1017200020E0B8F1110F18D0B8F1120F42D11EE02D
:10173000B9F5881F25D006DCB9F5803F20D0B9F572
:10174000801F37D11AE0B9F5001F18D0B9F5041F72
:1017500030D117E0D1F80CC02DE0D1F80C8008F1A1
:10176000040C28E0D1F80C8008F1080C23E0D1F833
:101770000C8008F10C0C1EE000BF00BF00BF00BFD2
:1017800000BF00BFD1F80880B8F1000F02D14FF0C0
:10179000040C0BE0D1F80880B8F1010F03D14FF031
:1017A000080C146102E04FF0080C546103E04FF0A4
:1017B000000C00E000BF00BFFF2801D8904601E008
:1017C00002F104084646FF2802D84FEA830803E0E6
:1017D000A3F108084FEA88084746D6F800804FF082
:1017E0000F0909FA07F928EA09080CFA07F900E0D5
:1017F0007AE048EA0908C6F80080D1F8048008F0C9
:101800008058B8F1805F6FD100BFDFF8E481D8F86D
:10181000188048F00108DFF8D891C9F81880C84648
:10182000D8F8188008F00108CDF8008000BF00BF8C
:101830004FEAB9384FEA930958F829504FEA8378AC
:101840004FEA18794FF00F0808FA09F825EA080559
:10185000DFF8A081424502D14FF0000824E0DFF814
:101860009881424502D14FF001081DE0DFF88C81DC
:10187000424502D14FF0020816E0DFF8848142456C
:1018800002D14FF003080FE0DFF87881424502D122
:101890004FF0040808E0DFF87081424502D14FF0B4
:1018A000050801E04FF006084FEA83794FEA1979FD
:1018B00008FA09F848EA0505DFF850814FEA93096C
:1018C00048F82950D1F8048008F48038B8F5803FF2
:1018D0000BD1DFF83C81D8F8008048EA0008DFF837
:1018E0003091C9F800800AE075E0DFF82481D8F86B
:1018F000008028EA0008DFF81891C9F80080D1F8C4
:10190000048008F40038B8F5003F0ED1DFF80081FC
:1019100008F10408D8F8008048EA0008DFF8F090E1
:1019200009F10409C9F800800DE0DFF8E48008F14E
:101930000408D8F8008028EA0008DFF8D49009F1FC
:101940000409C9F80080D1F8048008F48018B8F5BB
:10195000801F0ED1DFF8B88008F10808D8F80080A1
:1019600048EA0008DFF8A89009F10809C9F80080E2
:101970000DE0DFF89C8008F10808D8F8008028EA1C
:101980000008DFF88C9009F10809C9F80080D1F847
:10199000048008F40018B8F5001F0ED1DFF870803D
:1019A00008F10C08D8F8008048EA0008DFF86090D9
:1019B00009F10C09C9F800800DE0DFF8548008F146
:1019C0000C08D8F8008028EA0008DFF8449009F1F4
:1019D0000C09C9F800805B1CD1F8008028FA03F8D4
:1019E000B8F1000F7FF47CAEBDE8F887000011105D
:1019F0000010024000080140000C014000100140AE
:101A00000014014000180140001C01400800014082
:101A100000040140024693680B400BB1012000E036
:101A2000002070470AB1016101E00B0403617047B7
:101A300001480068704700008800002003480068E3
:101A4000034909780844014908607047880000206C
:101A50009000002010B50848006840F010000649CA
:101A60000860052000F080F80F2000F007F800F073
:101A70002BF8002010BD00000020024070B5044685
:101A80000E4800784FF47A71B1FBF0F00C49096808
:101A9000B1FBF0F5284600F0F7FB08B1012070BD5E
:101AA000102C07D200222146501E00F01EF80548D7
:101AB000046001E00120F2E70020F0E79000002040
:101AC000740000208C000020704701460846002862
:101AD00009DB00F01F0301229A4043099B0003F138
:101AE000E023C3F8002100BF70472DE9F05F804676
:101AF0000D461646002703F09DF9074639462A464B
:101B0000334601F00700C0F1070ABAF1040F02D909
:101B10004FF0040A01E0C0F1070AD14600F1040ABF
:101B2000BAF1070F02D24FF0000A01E0A0F1030A58
:101B3000D4464FF0010A0AFA09FAAAF1010A0AEAA0
:101B4000020A0AFA0CFA4FF0010B0BFA0CFBABF18C
:101B5000010B0BEA030B4AEA0B042146404603F053
:101B600071F9BDE8F09F000000BF00F00702064BCE
:101B700019684FF6FF031940044B0B4343EA022157
:101B8000014B196000BF70470CED00E00000FA0542
:101B900070B504460D460CB9012070BD5A48006866
:101BA00000F00700A8420ED25748006820F0070056
:101BB0002843554908600846006800F00700A8421D
:101BC00001D00120E9E7207800F0020002281DD1B1
:101BD000207800F00400042805D14C48406840F407
:101BE000E0604A494860207800F00800082805D1E4
:101BF0004648406840F46050444948604348406863
:101C000020F0F000A168084340494860207800F0C7
:101C1000010078B36068012806D13C48006800F4F0
:101C2000003090B90120B8E76068022806D1374833
:101C3000006800F0007040B90120AEE7334800684A
:101C400000F0020008B90120A7E73048406820F002
:101C50000300616808432D494860FFF7E9FE064626
:101C600009E0FFF7E5FE801B41F28831884202D986
:101C7000032092E707E02548406800F00C00616807
:101C8000B0EB810FEDD12048006800F00700A842BA
:101C90000ED91D48006820F0070028431A49086043
:101CA0000846006800F00700A84201D0012074E750
:101CB000207800F00400042807D11448406820F47C
:101CC000E060E168084311494860207800F00800AE
:101CD000082808D10D48406820F46050216940EA86
:101CE000C1000A49486000F03FF808494968C1F35B
:101CF0000311074A515CC84006490860064800685D
:101D0000FFF7BCFE002048E7002002400010024020
:101D10005A600008740000208C0000200148006810
:101D2000704700007400002000B5FFF7F7FF04497A
:101D30004968C1F30221034A515CC84000BD00005C
:101D4000001002406A60000800B5FFF7E7FF044991
:101D50004968C1F3C221034A515CC84000BD00007C
:101D6000001002406A600008F0B585B00FF26C0CFC
:101D70009CE8E01001A8A0E8E0101CA52D680095E3
:101D800000210022002300240020194D696801F081
:101D90000C05F5B1042D02D0082D19D101E015482C
:101DA00019E001ADC1F38346AC5D01F4803555B156
:101DB0000F4D6D68C5F340451DF805200D4D654379
:101DC000B5FBF2F302E00C4D04FB05F3184602E00C
:101DD00000BF084800BF00BF05B0F0BD0203040506
:101DE000060708090A0B0C0D0E0F10100102000067
:101DF0000010024000127A0000093D00F8B50446C8
:101E00000CB90120F8BD207800F00100002878D03E
:101E1000F848406800F00C0004280CD0F5484068F1
:101E200000F00C00082811D1F248406800F480301E
:101E3000B0F5803F0AD1EF48006800F40030002878
:101E40005FD0606800285CD10120DBE700BF6068DC
:101E5000B0F5803F06D1E748006840F48030E5499E
:101E6000086028E0606858B9E248006820F48030D3
:101E7000E04908600846006820F4802008601AE005
:101E80006068B0F5A02F0BD1DA48006840F48020DC
:101E9000D84908600846006840F4803008600AE0CD
:101EA000D448006820F48030D249086008460068B1
:101EB00020F48020086000BF606888B1FFF7B8FD9B
:101EC000054606E0FFF7B4FD401B642801D9032056
:101ED00098E7C848006800F400300028F2D010E00D
:101EE000FFF7A6FD054606E0FFF7A2FD401B6428AC
:101EF00001D9032086E7BF48006800F400300028BD
:101F0000F2D1207800F00200022857D1B948406889
:101F100000F00C0050B1B748406800F00C000828F1
:101F200018D1B448406800F4803098B9B1480068CE
:101F300000F0020020B12069012801D0012061E7F2
:101F4000AC48006820F0F800616940EAC100A94986
:101F5000086033E02069E8B10120A7490860FFF775
:101F600067FD054606E0FFF763FD401B022801D927
:101F7000032047E79F48006800F002000028F2D0E5
:101F80009C48006820F0F800616940EAC100994966
:101F9000086013E0002098490860FFF749FD0546F6
:101FA00006E0FFF745FD401B022801D9032029E781
:101FB0009048006800F002000028F2D1207800F07C
:101FC000080008282DD1A069B8B101208B4908600C
:101FD000FFF72EFD054606E0FFF72AFD401B02280D
:101FE00001D903200EE78348406A00F00200002870
:101FF000F2D0012002F0F0FA13E000207F490860DF
:10200000FFF716FD054606E0FFF712FD401B02280C
:1020100001D90320F6E67748406A00F00200002864
:10202000F2D1207800F00400042873D10027714811
:10203000C06900F0805070B900BF6E48C06940F0C0
:1020400080506C49C8610846C06900F0805000901B
:1020500000BF00BF01276A48006800F48070B0B973
:102060006748006840F4807065490860FFF7E0FC4D
:10207000054606E0FFF7DCFC401B642801D903207D
:10208000C0E65F48006800F480700028F2D000BF0E
:10209000E068012806D15748006A40F00100554920
:1020A000086227E0E06858B95248006A20F0010051
:1020B000504908620846006A20F00400086219E0EE
:1020C000E06805280BD14B48006A40F004004949FC
:1020D00008620846006A40F0010008620AE04548CC
:1020E000006A20F00100434908620846006A20F0B7
:1020F0000400086200BFE068A0B1FFF799FC054644
:1021000009E0FFF795FC401B41F28831884202D973
:10211000032077E622E03748006A00F0020000283A
:10212000EFD012E0FFF784FC054608E0FFF780FCE3
:10213000401B41F28831884201D9032062E62D48D4
:10214000006A00F002000028F0D1012F05D12948D3
:10215000C06920F080502749C86100BFE069C8B35A
:102160002448406800F00C00082860D0E06902288C
:1021700048D1002020490866FFF75AFC054606E0D2
:10218000FFF756FC401B022801D903203AE6194804
:10219000006800F000700028F2D1206AB0F5803F9E
:1021A00007D11448406820F40030A1680843114961
:1021B0004860D4E9080108430E49496821F47411C4
:1021C00008430C49486001200B490866FFF730FCC2
:1021D000054607E03DE0FFF72BFC401B022801D934
:1021E00003200FE60348006800F000700028F2D0DA
:1021F0002FE00000001002400000424280044242F2
:1022000000700040002014490866FFF711FC0546E5
:1022100006E0FFF70DFC401B022801D90320F1E581
:102220000E48006800F000700028F2D111E0E0696B
:10223000012800D1E6E50948466806F48031206AA5
:10224000814204D106F47011606A814201D00120FC
:10225000D8E50020D6E50000000042420010024010
:10226000042808D14FF0E021096941F004014FF042
:10227000E022116107E04FF0E021096921F004013B
:102280004FF0E0221161704770B504462546681E84
:10229000B0F1807F01D301200FE0681E4FF0E021F4
:1022A00048610F214FF0FF3002F0CCFD00204FF0CD
:1022B000E021886107200861002070BD70477047E9
:1022C00010B504460CB9012010BD94F83D0028B9A2
:1022D000002084F83C00204600F026F8022084F814
:1022E0003D00211D206802F0FFF9012084F846001E
:1022F00000BF84F83E0001213F20015540200155D8
:102300004120015500BF00BF012084F84200432056
:102310000155442001554520015500BF012084F896
:102320003D000020D0E7000038B504460D49206884
:10233000884215D100BF0C48C06940F010000A491E
:10234000C8610846C06900F01000009000BF00BFDF
:10235000022200213620FFF7C8FB3620FFF7B5FB2D
:1023600038BD00000010004000100240014691F806
:102370003D00012801D001207047022081F83D0076
:102380000868C06840F001000B68D860164B086808
:10239000984213D0154B086898420FD00868B0F1E6
:1023A000804F0BD0124B0868984207D0114B086839
:1023B000984203D0104B086898420CD10868806896
:1023C00000F00702062A0CD00868006840F00100FF
:1023D0000B68186005E00868006840F001000B68B1
:1023E00018600020C8E70000002C014000340140C4
:1023F0000004004000080040000C0040704710B589
:10240000044620680069C0F34000D8B12068C06865
:10241000C0F34000B0B16FF00200216808610120F4
:1024200020772068806900F0030018B12046FFF78C
:10243000E5FF05E0204600F0ADF8204600F09AF9EF
:102440000020207720680069C0F38000D8B12068A0
:10245000C068C0F38000B0B16FF00400216808616B
:10246000022020772068806900F4407018B120466F
:10247000FFF7C4FF05E0204600F08CF8204600F08E
:1024800079F90020207720680069C0F3C000D8B136
:102490002068C068C0F3C000B0B16FF008002168C8
:1024A0000861042020772068C06900F0030018B19B
:1024B0002046FFF7A3FF05E0204600F06BF820461A
:1024C00000F058F90020207720680069C0F3001060
:1024D000D8B12068C068C0F30010B0B16FF0100030
:1024E00021680861082020772068C06900F44070E6
:1024F00018B12046FFF782FF05E0204600F04AF8B9
:10250000204600F037F9002020772068006900F0AD
:10251000010058B12068C06800F0010030B16FF0D0
:10252000010021680861204600F0A0F920680069D8
:10253000C0F3C01058B12068C068C0F3C01030B1FB
:102540006FF08000216808612046FFF7B7FE206821
:102550000069C0F3801058B12068C068C0F38010D3
:1025600030B16FF0400021680861204600F08AF920
:1025700020680069C0F3401058B12068C068C0F3FB
:10258000401030B16FF02000216808612046FFF74D
:1025900096FE10BD704770B504460D46164600BF46
:1025A00094F83C00012801D1022070BD012084F87C
:1025B0003C0000BF36B1042E1BD0082E31D00C2EAB
:1025C0005ED145E02946206802F0EEF82068806977
:1025D00040F00800216888612068806920F00400CC
:1025E00021688861206880692969084321688861B9
:1025F00047E02946206802F00FF92068806940F41E
:102600000060216888612068806920F4806021680A
:10261000886120688069296940EA01202168886111
:102620002FE02946206802F035F92068C06940F0A3
:1026300008002168C8612068C06920F00400216892
:10264000C8612068C069296908432168C86118E029
:102650002946206802F05AF92068C06940F40060F9
:102660002168C8612068C06920F480602168C86161
:102670002068C069296940EA01202168C86100E03A
:1026800000BF00BF00BF002084F83C0000BF00BFB7
:102690008BE710B504460CB9012010BD94F83D003D
:1026A00028B9002084F83C00204600F025F80220DC
:1026B00084F83D00211D206802F016F8012084F8FE
:1026C000460000BF84F83E0001213F200155402014
:1026D00001554120015500BF00BF012084F8420090
:1026E00043200155442001554520015500BF0120DC
:1026F00084F83D000020D0E710B586B004461A49A2
:10270000206888422ED100BF1848806940F004003C
:10271000164988610846806900F00400019000BFF6
:1027200000BF00BF0846806940F400608861084629
:10273000806900F40060019000BF00BF881502901E
:1027400002200390032005900120049002A908486C
:10275000FEF7C0FF4FF40060029002A90448FEF7A4
:10276000B9FF00BF06B010BD002C014000100240B0
:10277000000801407047000070B504460D4615B9C9
:1027800094F83E000BE0042D02D13F20005D06E0EE
:10279000082D02D14020005D01E04120005D0128AC
:1027A00001D0012070BD1DB9022084F83E000EE06A
:1027B000042D03D102213F20015508E0082D03D14B
:1027C00002214020015502E0022141200155012251
:1027D0002946206801F0D6FF1F492068884203D0AF
:1027E0001E492068884201D1012000E0002028B164
:1027F0002068406C40F40040216848641649206815
:10280000884213D01549206888420FD02068B0F163
:10281000804F0BD012492068884207D011492068A8
:10282000884203D01049206888420CD12068806813
:1028300000F00706062E0CD02068006840F001006A
:102840002168086005E02068006840F00100216808
:1028500008600020A6E70000002C01400034014081
:102860000004004000080040000C004010B5044681
:1028700003492068884201D100F0C6FA10BD00006B
:1028800000100040704770472DE9F047044620686B
:1028900005682068C668206847694FF00008C1468F
:1028A00005F00F08B8F1000F0AD105F0200038B18B
:1028B00006F0200020B1204602F060F9BDE8F08764
:1028C000B8F1000F71D007F0010018B906F490704C
:1028D00000286AD005F0010030B106F4807018B10C
:1028E000E06B40F00100E06305F0040030B107F058
:1028F000010018B1E06B40F00200E06305F0020057
:1029000030B107F0010018B1E06B40F00400E06363
:1029100005F0080048B106F0200010B907F00100EA
:1029200018B1E06B40F00800E063E06B68B305F0BD
:10293000200028B106F0200010B1204602F01EF958
:1029400020684069C0F38019E06B00F0080010B9FE
:10295000B9F1000F22D0204602F0F0F8206840695B
:1029600000F04000B0B12068406920F040002168CC
:102970004861606B50B11848616B4863606BFEF74B
:10298000A1FD10B1606B416B88470CE02046FFF75A
:102990007AFF08E02046FFF776FF04E02046FFF7C5
:1029A00072FF0020E06389E7FFE705F0800030B1A7
:1029B00006F0800018B1204602F0AEF97EE705F07F
:1029C000400030B106F0400018B1204602F0C6F8D1
:1029D00074E700BF72E70000294B000810B50446F9
:1029E0000CB9012010BDA06900B100E000BF94F84F
:1029F000390028B9002084F83800204600F028F873
:102A0000242084F839002068C06820F40050216830
:102A1000C860204602F002F92068006920F4904066
:102A2000216808612068406920F02A002168486117
:102A30002068C06840F400502168C8600020E0634E
:102A4000202084F8390084F83A000020CAE700000A
:102A500010B586B004465049206888424AD100BF6C
:102A600000BF4E48806940F004004C498861084628
:102A7000806900F00400019000BF00BF00BF00BFEC
:102A800000BF0846806940F00400886108468069FC
:102A900000F00400019000BF00BF00BF00BF00BFF6
:102AA0000846806940F4804088610846806900F4E7
:102AB0008040019000BF00BF00BF48150290022077
:102AC0000390012004900320059002A93448FEF7EA
:102AD00001FE4FF4806002900020039002A930486C
:102AE000FEF7F8FD2520FEF7F0FF03220221252046
:102AF000FEF7FBFF2B49206888424AD100BF00BF88
:102B00002648806940F010002449886108468069A1
:102B100000F01000019000BF00BF00BF00BF00BF69
:102B20000846806940F0100088610846806900F01E
:102B30001000019000BF00BF00BF00BF00BF0846EB
:102B4000C06940F40020C8610846C06900F4002054
:102B5000019000BF00BF00BF081502900220039043
:102B6000012004900320059002A90F48FEF7B2FD52
:102B70004FF4006002900020039002A90A48FEF77B
:102B8000A9FD3420FEF7A1FF012200213420FEF729
:102B9000ACFF06B010BD000000380140001002403C
:102BA00000080140004C00400010014010B50346F1
:102BB00093F83A0020282FD101B10AB9012010BDA5
:102BC00000BF93F83800012801D10220F7E7012067
:102BD00083F8380000BF99629A85DA850020D863AF
:102BE000222083F83A0000BF002083F8380000BF9D
:102BF0001868C06840F480701C68E060186840691C
:102C000040F001001C6860611868C06840F0200056
:102C10001C68E0600020D2E70220D0E73B4A016850
:102C2000914236D13A49098801F4004189BB3849BB
:102C3000098801F4804171B1364909780A2903D025
:102C40000021334A118024E03149098841F40041D0
:102C50002F4A11801DE02F4909780D2906D12C49F2
:102C6000098841F480412A4A118012E029490978F3
:102C7000274A1288C2F30D02274B99542449098828
:102C8000491C234A118011460988C72901DD00210A
:102C90001180224A0168914236D12149098801F404
:102CA000004189BB1E49098801F4804171B11D4969
:102CB00009780A2903D00021194A118024E0184913
:102CC000098841F40041164A11801DE01549097830
:102CD0000D2906D11249098841F48041104A11801A
:102CE00012E0104909780E4A1288C2F30D020E4B09
:102CF00099540B490988491C094A118011460988D1
:102D0000C72901DD00211180704700000038014013
:102D10008000002084000020D0010020004C0040F2
:102D20008200002085000020980200202DE9F84F45
:102D300004460E46174699464FF0000A94F83900AB
:102D400020285AD106B117B90120BDE8F88F00BF7D
:102D500094F83800012801D10220F6E7012084F818
:102D6000380000BF0020E063212084F83900FEF71E
:102D70005FFE8246A784E784A068B0F5805F04D137
:102D8000206910B90025B04602E035464FF0000832
:102D900000BF002084F8380000BF1BE0534600222B
:102DA00080212046CDF8009001F0E6FF08B1032015
:102DB000CBE745B9B8F80000C0F3080021684860C7
:102DC00008F1020803E02878216848606D1CE08C57
:102DD000401EE084E08C0028E0D1534600224021D0
:102DE0002046CDF8009001F0C7FF08B10320ACE702
:102DF000202084F839000020A7E70220A5E77047CB
:102E000000BFFEE700BFFEE710B54FF400414248A7
:102E100002F030FA48B14148007818B901203F4922
:102E2000087002E000203D49087000F00FFC3C48AB
:102E30000078012802D101F0A9FA6CE03948007845
:102E4000012803D038480078012864D1334800783D
:102E5000002860D135480078002855D034480078E3
:102E6000012851D1334800881E284DDCFEF780FA36
:102E70003148008840B9314C63682268304C616841
:102E8000206800F077F93FE02B480088012808D13E
:102E90002C4C636822682A4C6168206800F06AF94B
:102EA00032E025480088022808D1274C6368226850
:102EB000234C6168206800F05DF925E01E48008819
:102EC000032808D1214C636822681D4C6168206882
:102ED00000F050F918E018480088042808D1174C71
:102EE00063682268164C6168206800F043F90BE0C3
:102EF00011480088052807D1104C63682268104CDF
:102F00006168206800F036F90A4800881E2802DB54
:102F100000200749087010BD000801407100002022
:102F20000100002003000020020000208201002098
:102F3000700000209A000020660100204800002058
:102F40006800002050000020580000206000002091
:102F5000704700002DE9F04704460D4629462046FB
:102F600002F0F9FF324908600846016831480068FC
:102F700002F044FD2F4908602F492E48006802F0F6
:102F8000B9FF03D22C482B49086008E02B49294897
:102F9000006802F0AFFE02D228482649086028489F
:102FA00001682348006802F0E1FF81462548016876
:102FB000484602F0D3FE07461E48016822480068D2
:102FC00002F0CCFE81461A4801682048006802F0F1
:102FD000C5FE8246494602F011FD8046394602F0A0
:102FE0000DFD06461A480168304602F007FD1849F3
:102FF00008600F48006812490860164801681448C4
:10300000006802F077FF04D2124800681049086097
:103010000AE0114801680E48006802F06BFE03D216
:103020000D4800680A49086009480068BDE8F08753
:10303000100100201801002000409C4500409CC564
:103040001C010020D0000020D8000020D400002067
:103050001401002004010020000100202DE9F047A8
:1030600004460D462946204602F075FF37490860A0
:10307000084601683648006802F0C0FC3449086020
:10308000344801683248006802F034FF04D2314805
:1030900000682F4908600FE02E48006880F0004665
:1030A0002B480168304602F025FF05D22948006808
:1030B00080F00040264908602748016823480068DE
:1030C00002F054FF814625480168484602F046FE5A
:1030D00007461F4801682248006802F03FFE81460B
:1030E0001A4801681F48006802F038FE82464946C7
:1030F00002F084FC8046394602F080FC06461A48FD
:103100000168304602F07AFC174908600F480068F1
:1031100011490860154801681348006802F0EAFE8A
:1031200004D212480068104908600AE0104801689B
:103130000D48006802F0DEFD03D20D4800680A4920
:10314000086009480068BDE8F08700002001002001
:1031500028010020B40000202C010020DC00002009
:10316000E4000020E0000020240100200C010020E9
:10317000080100202DE9F04F87B081460C46154626
:103180001E469448007800285BD04FF00F0A504646
:1031900002F09CFD07462946484602F0DCFE8046C8
:1031A000394602F099FC8C4908604FF07E518A48FC
:1031B000006802F09FFE03D84FF07E5086490860F9
:1031C00086498548006802F095FD02D88348824907
:1031D0000860504602F07AFD07462146304602F06C
:1031E000C5FE8046394602F077FC7D4908600846F6
:1031F000006802F0D7FB074600227A4B02F0B2FAD1
:1032000003D84FF07D50764908607548006802F099
:10321000C9FB07460022744B02F014FA02D8734827
:103220006F4908606C480168484602F0E7FB704946
:1032300008606B480168204602F0E0FB6D490860B9
:10324000B1E06D4800780028FAD06C48016830463B
:1032500002F08CFE029069480168304602F086FE5A
:103260000190029902F07AFD0490654801682846B1
:1032700002F07CFE029062480168284602F076FE69
:103280000190029902F06AFD0390049902F0B6FBE6
:103290005C49059002F02EFE26D84FF0190A5046E0
:1032A00002F014FD29460590484602F054FE0490B1
:1032B000059902F011FC48490860504602F006FDED
:1032C00021460590304602F051FE0490059902F027
:1032D00003FC434908604648C0F800904548046034
:1032E00047480560454806604FF0000823464A46B7
:1032F0003146284601F028FE06903E4803683C48C7
:1033000031460268284601F01FFE0746DFF8F8B094
:103310003946069802F0EEFC44D800BF40E008F1C0
:1033200001001FFA80F8B8F1640F03DD414637A0B1
:10333000FCF78EFF284801682D48006802F05EFB0C
:103340002B490860264801682A48006802F056FBAD
:10335000284908600846036825483146026828461F
:1033600001F0F2FD0746584602F01CFBCDE90401CE
:10337000384602F017FB294A294BCDE9000102F03B
:10338000ADF8CDE90201DDE9042302F0EBF900D24A
:1033900007E0BB463846069902F0ACFC00D800E0D6
:1033A000BDE700BF00BF12480168484600F03EF884
:1033B0001C4908600F480168204600F0BBF81A4914
:1033C0000860084601681748006801F06DF907B009
:1033D000BDE8F08F0200002094010020000080BFB3
:1033E000980100200000E83F0000E8BF000040BF57
:1033F0009C010020A001002003000020A801002063
:10340000A4010020000016440050C3474572726FAB
:103410007220486572653A25640D0A002D431CEB45
:10342000E2361A3F6C010020700100202DE9F047C0
:1034300004460D462946204602F08DFD32490860BB
:10344000084601683148006802F0D8FA2F49086040
:103450002F492E48006802F04DFD03D22C482B491D
:10346000086008E02B492948006802F043FC02D2BA
:10347000284826490860284801682348006802F067
:1034800075FD814625480168484602F067FC0746FD
:103490001E4801682248006802F060FC81461A4814
:1034A00001682048006802F059FC8246494602F053
:1034B000A5FA8046394602F0A1FA06461A48016884
:1034C000304602F09BFA184908600F48006812491C
:1034D0000860164801681448006802F00BFD04D229
:1034E00012480068104908600AE0114801680E4857
:1034F000006802F0FFFB03D20D4800680A4908602B
:1035000009480068BDE8F08730010020AC000020C9
:103510000000FA430000FAC334010020E800002054
:10352000F0000020EC000020380100200401002001
:10353000000100202DE9F04704460D4629462046AB
:1035400002F009FD374908600846016836480068FE
:1035500002F054FA3449086034480168324800687F
:1035600002F0C8FC04D2314800682F4908600FE01F
:103570002E48006880F000462B480168304602F073
:10358000B9FC05D22948006880F00040264908604F
:10359000274801682348006802F0E8FC8146254876
:1035A0000168484602F0DAFB07461F4801682248D6
:1035B000006802F0D3FB81461A4801681F48006882
:1035C00002F0CCFB8246494602F018FA80463946A2
:1035D00002F014FA06461A480168304602F00EFA64
:1035E000174908600F4800681149086015480168CC
:1035F0001348006802F07EFC04D2124800681049AB
:1036000008600AE0104801680D48006802F072FB8B
:1036100003D20D4800680A49086009480068BDE8FF
:10362000F08700003C010020B0000020B80000201E
:1036300040010020F4000020FC000020F8000020E1
:10364000440100200C0100200801002000B58FB0CB
:10365000FD48008800F4004000287DD0FA4800882A
:10366000C0F30D00F9490880F9480078B32874D1F7
:10367000F7484078B328FAD1F548807C01286DD10D
:10368000F44800780028FAD1F34800780128F6D1F0
:1036900002200E9017E0EE490E980830085C40B109
:1036A0000E98095C01F58071801EEC4A22F810101A
:1036B00006E0E7490E98095C801EE84A22F81010DF
:1036C0000E98401C0E900E980A28E4DB0020E0497A
:1036D0008874E3480078401CE14908700120E14902
:1036E0000870DE4880890D9002F0F0FA0E90DE48F6
:1036F000006801460D900E9802F080F9DA490860E2
:10370000D648C0890D9002F0E1FA0E90D648406884
:1037100001460D900E9802F071F9D3494860CF48E8
:1037200000890D9002F0D2FA0E90D0480068014650
:103730000D900E9802F062F9CC490860C7484089A4
:103740000D9002F0C3FA0E90C848406801460D90F3
:103750000E9802F053F902E0FEE3C1E0C1E0C34974
:103760004860BE4880880D9002F0B0FA0E90C048C4
:10377000006801460D900E9802F040F9BC490860BF
:10378000B648C0880D9002F0A1FA0E90B848406883
:1037900001460D900E9802F031F9B5494860AF48E6
:1037A00000880D9002F092FA0E90B248006801462F
:1037B0000D900E9802F022F9AE490860A7484088A3
:1037C0000D9002F083FA0E90AA48406801460D90D1
:1037D0000E9802F013F9A749486000200E9007E008
:1037E00000219E4A0E9822F810100E98401C0E9050
:1037F0000E980828F4DB9A480078032870D100203E
:10380000954908700120934908709548007802F0A6
:103810005DFA0E90944800680D900E9902F05CF9E4
:10382000914908608E48007802F050FA0E908E4858
:1038300040680D900E9902F04FF98B494860884816
:10384000007802F043FA0E90884800680D900E99B7
:1038500002F042F9854908608148007802F036FAA2
:103860000E90824840680D900E9902F035F97F491C
:1038700048607B48007802F029FA0E907C48006886
:103880000D900E9902F028F9794908607448007883
:1038900002F01CFA0E90764840680D900E9902F0E6
:1038A0001BF9734948606E48007802F00FFA0E90D9
:1038B000704800680D900E9902F00EF96D4908608D
:1038C0006748007802F002FA0E906A4840680D904E
:1038D0000E9902F001F967494860002060490870BC
:1038E00062E15B48807C02287ED15A48007800283B
:1038F000FAD1594800780028F6D102200E9017E03E
:1039000053490E980830085C40B10E98095C01F5E7
:103910008071801E514A22F8101006E04C490E9822
:10392000095C801E4D4A22F810100E98401C0E9023
:103930000E980A28E4DB002045498874484800783E
:10394000401C4749087001204B4908704348808952
:103950000D9002F0BBF90E904848006801460D90AA
:103960000E9802F04BF8454908603C48C0890D901C
:1039700002F0ACF90E904148406801460D900E9857
:1039800002F03CF83D494860344800890D9002F04F
:103990009DF90E903A48006801460D900E9802F08D
:1039A0002DF8374908602D4840890D9002F08EF9B6
:1039B0000E903348406801460D900E9802F01EF8B4
:1039C0002F494860254880880D9002F07FF90E90BD
:1039D0002C48006801460D900E9802F00FF8294916
:1039E00008601E48C08800E0FDE30D9002F06EF90B
:1039F0000E902448406801460D900E9801F0FEFF9D
:103A000020494860154800880D9002F05FF90E903B
:103A10001D48006801460D900E9801F0EFFF1A490D
:103A200008600E4840880D9002F050F90E9016483C
:103A3000406801460D900E9801F0E0FF1249486081
:103A400000200E902AE0000082000020600100208B
:103A5000980200208201002083010020AC01002098
:103A60000400002080010020080000201000002039
:103A700018000020200000208101002028000020E4
:103A80003000002038000020400000200021FE4AC5
:103A90000E9822F810100E98401C0E900E980828D0
:103AA000F4DBFA48007803287ED10120F849087039
:103AB000F648007802F00AF90E90F64800680D907A
:103AC0000E9902F009F8F3490860F048007802F016
:103AD000FDF80E90EF4840680D900E9901F0FCFF44
:103AE000EC494860E948007802F0F0F80E90EA48A6
:103AF00000680D900E9901F0EFFFE7490860E34878
:103B0000007802F0E3F80E90E34840680D900E99BB
:103B100001F0E2FFE0494860DC48007802F0D6F8A6
:103B20000E90DE4800680D900E9901F0D5FFDB493C
:103B30000860D648007802F0C9F80E90D74840686F
:103B40000D900E9901F0C8FFD4494860CF48007825
:103B500002F0BCF80E90D24800680D900E9901F06A
:103B6000BBFFCF490860C948007802F0AFF80E905B
:103B7000CB4840680D900E9901F0AEFFC8494860EF
:103B8000C64840680A90C54800680990C248406825
:103B90000890C1480068079008A90EC901F0D4F93F
:103BA0000C90BD48406800E082E30A90BA48006883
:103BB0000990B84840680890B6480068079008A97E
:103BC0000EC901F0C1F90B900C9902F0C7F80E90E4
:103BD000B44840680A90B34800680990B248406809
:103BE0000890B1480068079008A90EC901F0ACF927
:103BF0000C90AD4840680A90AB4800680990AB480B
:103C000040680890A9480068079008A90EC901F00B
:103C10009BF90B900C9902F0A1F80D900E9902F00F
:103C200069F81CD8A1480068A14908609F4840680D
:103C300048609D4800689F4908609B48406848600C
:103C4000984800689C4908609648406848609B48CE
:103C500000689B490860994840684860BDE20020C0
:103C600004908C4800680B908B4800680C908B483F
:103C700000680D908A4800680E908648406807905A
:103C800085484068089085484068099084484068A5
:103C90000A908048406803907E48006802908348FC
:103CA0004068019081480068009001A90EC901F0A8
:103CB0004BF90690002004907748406803907648BE
:103CC0000068029079484068019078480068009048
:103CD00001A90EC901F038F90590DDE9051002F0DF
:103CE00009F903D205980690012004906B484068BA
:103CF00003906A48006802906C48406801906B48E5
:103D00000068009001A90EC901F01EF90590DDE9D7
:103D1000051002F0EFF803D20598069002200490F7
:103D20005F48406803905E48006802905F484068C2
:103D300001905E480068009001A90EC901F004F9E5
:103D40000590DDE9051002F0D5F803D2059806903C
:103D5000032004905B4801684FF07E5002F006F9A2
:103D60000BA90190049851F8200001460090019899
:103D700001F0F4FF03904D4800680146019051485E
:103D8000006801F0EBFF0290039901F037FE48490B
:103D900008604C4801684FF07E5002F0E7F807A930
:103DA0000190049851F8200001460090019801F01C
:103DB000D5FF03903D4840680146019041480068A6
:103DC00001F0CCFF0290039901F018FE38494860D9
:103DD0003048406803902F4800680290324840689D
:103DE000019031480068009001A90EC901F0ACF8BB
:103DF00006900020049028484068039026480068F8
:103E0000029029484068019027480068009001A965
:103E10000EC901F099F80590DDE9051002F06AF885
:103E200003D205980690012004901C484068039036
:103E30001A48006802901C48406801901A480068BF
:103E4000009001A90EC901F07FF80590DDE9051089
:103E500002F050F803D20598069002200490104812
:103E6000406803900E48006802900F484068019037
:103E70000D480068009001A90EC901F065F8059091
:103E8000DDE9051020E00000AC0100200400002066
:103E9000820100202800002030000020380000208F
:103EA0004000002018000020100000200800002022
:103EB0004800002050000020580000202000002072
:103EC000600000209001002002F014F803D2059851
:103ED000069003200490F74801684FF07E5002F0EE
:103EE00045F80BA90190049851F820000146009074
:103EF000019801F033FF0390EF48006801460190FC
:103F0000EC48006801F02AFF0290039901F076FD69
:103F1000EA490860E74801684FF07E5002F026F851
:103F200007A90190049851F82000014600900198DB
:103F300001F014FF0390E048406801460190DD481D
:103F4000006801F00BFF0290039901F057FDDB4977
:103F50004860DB48406800E00AE20390D848006807
:103F60000290D84840680190D6480068009001A9A6
:103F70000EC900F0E9FF069000200490D248406886
:103F80000390D14800680290CE4840680190CD4827
:103F90000068009001A90EC900F0D6FF0590DDE988
:103FA000051001F0A7FF03D20598069001200490A8
:103FB000C64840680390C54800680290C148406800
:103FC0000190C0480068009001A90EC900F0BCFF34
:103FD0000590DDE9051001F08DFF03D205980690EC
:103FE00002200490BA4840680390B94800680290E3
:103FF000B44840680190B3480068009001A90EC918
:1040000000F0A2FF0590DDE9051001F073FF03D277
:104010000598069003200490A64801684FF07E5052
:1040200001F0A4FF0BA90190049851F8200001466B
:104030000090019801F092FE0390A24800680146AA
:1040400001909C48006801F089FE0290039901F0FC
:10405000D5FCA0490860974801684FF07E5001F0F8
:1040600085FF07A90190049851F8200001460090AF
:10407000019801F073FE0390924840680146019058
:104080008C48006801F06AFE0290039901F0B6FCCA
:10409000904948608A4840680390894800680290C7
:1040A0008D48406801908C480068009001A90EC9B5
:1040B00000F04AFF06900020049083484068039077
:1040C00081480068029084484068019082480068F6
:1040D000009001A90EC900F037FF0590DDE9051039
:1040E00001F008FF03D2059806900120049077485C
:1040F00040680390754800680290774840680190D6
:1041000075480068009001A90EC900F01DFF0590D8
:10411000DDE9051001F0EEFE03D2059806900220BD
:1041200004906B48406803906948006802906A48B0
:104130004068019068480068009001A90EC900F02D
:1041400003FF0590DDE9051001F0D4FE03D20598C8
:10415000069003200490574801684FF07E5001F00C
:1041600005FF0BA90190049851F82000014600902A
:10417000019801F0F3FD0390574800680146019053
:104180004C48006801F0EAFD0290039901F036FC0A
:1041900052490860474801684FF07E5001F0E6FE42
:1041A00007A90190049851F8200001460090019859
:1041B00001F0D4FD039048484068014601903D4815
:1041C000006801F0CBFD0290039901F017FC434910
:1041D000486043A0FCF73CF800BF4FF47A73032219
:1041E0004349444800E087E0FEF7A0FD00BF414896
:1041F00000680068C0F380100028F8D0052000F0A7
:1042000061FE4FF47A73032239493A48FEF78EFD76
:1042100000BF384800680068C0F380100028F8D05C
:10422000052000F04FFE4FF47A73032230493148E5
:10423000FEF77CFD00BF2F4800680068C0F38010C7
:104240000028F8D0052000F03DFE4FF47A730322D9
:1042500027492848FEF76AFD00BF26480068006825
:10426000C0F380100028F8D0052000F02BFE4FF49A
:104270007A7303221E491F48FEF758FD00BF1D48F0
:1042800000680068C0F380100028F8D0052000F016
:1042900019FE4FF47A73032215491648FEF746FDBE
:1042A00000BF144800680068C0F380100028F8D0F0
:1042B0005BE0000090010020100000205000002072
:1042C00028000020180000203000002038000020C6
:1042D0004000002058000020200000206000002046
:1042E00043616C2046696E6973686564210D0A003C
:1042F0007C010020A00300201E48807C032834D1CC
:104300001D480078012830D100F0D0FF01201B4962
:10431000087002200E9017E016490E980830085CCD
:1043200040B10E98095C01F58071801E144A22F894
:10433000101006E00F490E98095C801E104A22F802
:1043400010100E98401C0E900E980428E4DB0C48C8
:1043500000880E9001F0BAFC0A49086008484088BD
:104360000E9001F0B3FC0749486000200649088020
:104370000FB000BD980200208201002070000020D4
:10438000AC010020680000208200002070B5824847
:10439000008800F40040002875D07F480088C0F3F2
:1043A0000D007E4908807E480078B3281CD17C48E7
:1043B0004078B32818D1022014E0794A00F10801AE
:1043C000515C41B11146095C01F58071821E754B4B
:1043D00023F8121005E072490A5C811E714B23F824
:1043E0001120401C0A28E8DB00206B4908806E4839
:1043F000008840B96B4880896C4908806948C08949
:104400006B4908803FE068480088012808D165486A
:10441000008966490880634840896549088032E020
:1044200061480088022808D15E4880885F4908807A
:104430005C48C0885E49088025E05B480088032806
:1044400008D158480088594908805648408858493A
:10445000088018E054480088042808D15148808911
:10446000524908804F48C089514908800BE04E48A6
:104470000088052807D14B4880894C490880494865
:10448000C0894B4908804948008800287ED04848A8
:10449000008800287ED04748007801285AD1424839
:1044A000008838B140480088042803D03E4800887E
:1044B000052807D10020404908806FF00C003F49D3
:1044C000088022E038480088012807D103203A49B3
:1044D00008806FF00C003949088016E032480088E7
:1044E000022807D10320344908806FF00B003349BC
:1044F00008800AE02C480088032806D100202E49B5
:1045000008806FF00B002D4908802B49B1F900108D
:1045100001F1500001F0C2FB04462448008801F07C
:10452000D5FB05462146FEF715FD254908602349C0
:10453000B1F9001001F13C0001F0B0FB04461C4849
:10454000008801F0C3FB05462146FEF787FD1D49A3
:10455000086017E01C480078012813D11348008830
:1045600001F0B4FB04461949FEF7F4FC1449086055
:104570000F48008801F0AAFB04461549FEF76EFDBE
:10458000104908600F4801680D4800E002E000682B
:1045900000F08AF870BD0000820000206001002059
:1045A00098020020AC01002066010020620100207A
:1045B0006401002001000020680100206A01002041
:1045C0006C01002070010020020000200000A042C9
:1045D00000003C427047000008B508490968C90856
:1045E0004FF47A72B1FBF2F14143009100BF00BF7A
:1045F00000994A1E00920029F9D108BD74000020DC
:104600007047000010B50446002C40D0002020491F
:10461000087016E04FF47A7303221E491E48FEF715
:1046200085FB00BF1C4800680068C0F380100028AC
:10463000F8D04FF4967000F045FC1548007800B1B2
:1046400000E0E7E700BF00BF144800780028FBD077
:104650000020124908701249087016E04FF47A736E
:10466000032210490C48FEF761FB00BF0A480068AE
:104670000068C0F380100028F8D04FF4967000F066
:1046800021FC0748007800B100E0E7E700BF10BD5B
:104690008001002074010020A0030020820100207E
:1046A000810100207801002070B505460C4628469F
:1046B00001F0D4FA04490860204601F0CFFA02491B
:1046C0000C31086070BD0000342C014010B5FDF7BE
:1046D000B5F910BD7047000010B50248FDF78FFE18
:1046E00010BD00002804002010B50268204B98423D
:1046F0000ED0204B98420BD0B0F1804F08D01E4B0B
:10470000984205D01D4B984202D01D4B984203D1D0
:1047100022F070024B681A43154B98420ED0154B8D
:1047200098420BD0B0F1804F08D0134B984205D07F
:10473000124B984202D0124B984203D122F440729D
:10474000CB681A4322F080034C6943EA04020260FA
:104750008B68C3620B688362054B984202D0054B9D
:10476000984201D10B6903630123436110BD00002E
:10477000002C0140003401400004004000080040CB
:10478000000C004030B501F01F05012404FA05F3C8
:10479000046A9C430462046A01F01F0502FA05F5ED
:1047A0002C43046230BD000030B5056A25F00105D8
:1047B0000562026A4368846924F0700424F00304EB
:1047C0000D682C4322F002028D682A43104DA84246
:1047D00000D103E00F4DA84206D100BF22F008022D
:1047E000CD682A4322F00402094DA84202D0094DA7
:1047F000A84207D123F4807323F400734D692B433F
:104800008D692B43436084614D684563026230BD0E
:10481000002C01400034014030B5056A25F0100538
:104820000562026A4368846924F4E04424F4407415
:104830000D6844EA052422F020028D6842EA051240
:10484000124DA84200D103E0114DA84207D100BF8C
:1048500022F08002CD6842EA051222F040020B4DA0
:10486000A84202D00A4DA84209D123F4806323F460
:1048700000634D6943EA85038D6943EA850343601C
:1048800084614D688563026230BD0000002C0140E8
:104890000034014030B5056A25F480750562026A6E
:1048A0004368C46924F0700424F003040D682C43A9
:1048B00022F400728D6842EA0522124DA84200D10E
:1048C00003E0114DA84207D100BF22F40062CD6879
:1048D00042EA052222F480620A4DA84202D00A4D23
:1048E000A84209D123F4805323F400534D6943EACD
:1048F00005138D6943EA05134360C4614D68C563C0
:10490000026230BD002C01400034014030B5056A20
:1049100025F480550562036A4468C26922F4E042C6
:1049200022F440720D6842EA052223F400538D6898
:1049300043EA0533084DA84202D0084DA84204D1ED
:1049400024F480444D6944EA85144460C2614D6892
:104950000564036230BD0000002C014000340140BA
:1049600010B51A491A48FFF79FFE4FF4FA7000F08D
:10497000A9FA18491848FFF797FE4FF4FA7000F0AB
:10498000A1FA16491648FFF78FFE4FF4FA7000F0AF
:1049900099FA14491248FFF787FE4FF4FA7000F0B5
:1049A00091FA10491048FFF77FFE4FF4FA7000F0BB
:1049B00089FA08490C48FFF777FE4FF4FA7000F0C7
:1049C00081FA02490248FFF76FFE10BD0000D7448C
:1049D0000060EA440060E94400E0F5440020EA4455
:1049E0000020DF440080C44400A0F54401200149B8
:1049F000087070470100002001200C490870002059
:104A00000B4908804FF000400A4908600A480B49EA
:104A100008600B480B490860C0070B4908600B4849
:104A20000B49086006480B490860704702000020E7
:104A300066010020E8000020CDCC4CBEEC00002038
:104A400095BFD6B3F0000020F4000020000080BE27
:104A5000F8000020FC0000200F48104908601048B2
:104A60001049086001201049087000200F49088093
:104A70004FF000400E4908600E480F4908600F488B
:104A80000F490860C0070F4908600F480F490860C8
:104A90000F4810490860704700001644B400002019
:104AA00000004844B80000200300002066010020F8
:104AB000E8000020CDCCCCBCEC00002017B7D1B86A
:104AC000F0000020F4000020EC5138BDF800002078
:104AD0009C5008B9FC00002010B5044604B910BD74
:104AE000012C01D1FFF73CFF022C01D1FFF77EFF23
:104AF000032C01D1FFF780FF042C01D1FFF7ACFF9D
:104B000000BFECE710B50648FDF7BEFE00BF01226E
:104B100004490348FEF74AF80028F8D110BD000008
:104B2000A00300208500002070B505466C6A0020B7
:104B3000E085E0842046FDF7A6FE70BD0168C968E7
:104B400021F490710268D1600168496921F0010186
:104B500002685161202180F83A10704710B5044670
:104B60002068C06820F040002168C860202084F8D8
:104B700039002046FEF743F9002010BD70B5044609
:104B800094F83A00222847D1A068B0F5805F0CD194
:104B9000206950B90025A66A20684068C0F3080063
:104BA0003080A06A801CA06215E0A56A0026A0687B
:104BB000B0F5805F03D0A06828B9206918B92068D3
:104BC0004068287004E02068406800F07F0028708A
:104BD000A06A401CA062E08D401E80B2E085C8B98A
:104BE0002068C06820F020002168C8602068C06884
:104BF00020F480702168C8602068406920F00100BE
:104C000021684861202084F83A002046FEF706F823
:104C1000002070BD0020FCE70220FAE770B50446D2
:104C20002168096921F44051E26811432268116149
:104C30002269A1681143626941EA02052168C968D5
:104C400041F20C62914329432268D160216849698D
:104C500021F44071A2691143226851612D4A2168F3
:104C6000914202D1FDF770F801E0FDF75DF800EB2D
:104C7000C00101EB001162689200B1FBF2F100EBA0
:104C8000C00202EB001263689B00B2FBF3F26423E4
:104C9000B2FBF3F202EBC20303EB0212A1EB8201BF
:104CA000322202EB01116422B1FBF2F101F0F001BA
:104CB00000EBC00202EB001263689B00B2FBF3F250
:104CC0006423B2FBF3F201EB021200EBC00101EB33
:104CD000001163689B00B1FBF3F100EBC00303EB31
:104CE00000136668B600B3FBF6F36426B3FBF6F375
:104CF00003EBC30606EB0313A1EB8301322303EBA3
:104D000001116423B1FBF3F101F00F01114422689A
:104D1000916070BD00380140014691F839002128AA
:104D200028D18868B0F5805F0BD1086948B90A6A54
:104D30001088C0F308000B685860086A801C08627D
:104D400005E00B6A581C086218780B685860C88C1C
:104D5000401E80B2C88458B90868C06820F080003E
:104D60000B68D8600868C06840F040000B68D860E5
:104D7000002070470220FCE72DE9F04104460D4673
:104D800017469846069E21E0701CF8B12EB1FCF73C
:104D90004FFEA0EB0800B04218D92068C06820F48C
:104DA000D0702168C8602068406920F00100216847
:104DB0004861202084F8390084F83A0000BF0020C0
:104DC00084F8380000BF0320BDE8F0812068006847
:104DD0002840A84201D1012000E00020B842D3D0F1
:104DE0000020F1E710B50648FDF74EFD00BF012297
:104DF00004490348FDF7DAFE0028F8D110BD000091
:104E0000600300208400002000BFFEE7490050EA54
:104E1000C12018BF04204A0D18BF40F0010040F225
:104E2000FF72B2EB515F08BF40F00200012808BFDB
:104E30000520704702480068C0F302207047000058
:104E40000CED00E010B5002804DB0A07130E054A3C
:104E5000135406E00A07140E034A00F00F031B1F49
:104E6000D45410BD00E400E018ED00E000BF70472E
:104E700070B504460D460748074908600846446077
:104E8000C56000218160FDF71BFA0348FDF76EFA4B
:104E900070BD0000001000402804002010B504463A
:104EA00000204FF0E0210861FDF7DAF92046E11714
:104EB00004EB5171C1F3CF01014A118010BD000014
:104EC0007800002070B504464FF47A7094FBF0F53A
:104ED00094FBF0F100FB114603E0074800F00EF8E8
:104EE0006D1E002DF9D12EB14FF47A7106FB01F041
:104EF00000F004F870BD000040420F000146114A66
:104F000012884A434FF0E0235A6100229A611A4600
:104F1000126942F001021A6100BF4FF0E0221069ED
:104F200000F001021AB100F48032002AF5D04FF0EF
:104F3000E022126922F001024FF0E0231A61002200
:104F40009A617047780000202DE9F84F07460C461B
:104F500015461E463146204601F008F88346314684
:104F6000204601F003F85946009000F0F7FE814614
:104F70002946384600F0FAFF83462946384600F0B5
:104F8000F5FF5946009000F0E9FE8246494600F0E0
:104F900035FD80464046BDE8F88F000000B585B07D
:104FA00000BF1E48806940F040001C4988610846E7
:104FB000806900F04000009000BF00BF00BF0846BD
:104FC000806940F0200088610846806900F0200078
:104FD000009000BF00BF48150190114802900120C9
:104FE000039001A90F48FCF775FB4FF400400190B6
:104FF00001A90D48FCF76EFB002211461720FCF7B3
:1050000074FD022201212820FCF76FFD1720FCF718
:105010005CFD2820FCF759FD05B000BD00100240E2
:1050200000002110001801400014014000BF054A93
:10503000126802F04002002AF9D0C2B2014B1B1DD7
:105040001A6070470038014000B585B000BF434882
:10505000806940F00100414988610846806900F09C
:105060000100009000BF00BF00BF3D49486820F02C
:10507000E06040F00070486000BF002001900290A6
:105080000390049000BF3548806940F00400334924
:1050900088610846806900F00400009000BF00BFEE
:1050A00000BF0846806940F00800886108468069B2
:1050B00000F00800009000BF00BF00BF08468069F4
:1050C00040F0100088610846806900F010000090F0
:1050D00000BF00BF00BF0846806940F02000886123
:1050E0000846806900F02000009000BF00BF40200B
:1050F000019001200290022003900320049001A956
:105100001848FCF7E7FA8020019001A91548FCF740
:10511000E1FA4FF48070019001A91348FCF7DAFA24
:105120004FF40070019001A90F48FCF7D3FA012257
:1051300040210C48FCF776FC012280210948FCF74D
:1051400071FC012211020848FCF76CFC012251029B
:105150000548FCF767FC05B000BD000000100240E8
:105160000000014000140140000C014000B587B070
:105170001C216846FBF7E8F81648174908604720E5
:10518000486044F61F611448C160002181600161DC
:1051900080218161FDF77DFA6020009040F253701C
:1051A000019000200290002269460B48FDF7F3F9B8
:1051B00040F2EC6001900C2269460748FDF7EBF9DC
:1051C00000210548FDF7D8FA0C210348FDF7D4FA71
:1051D00007B000BD002C0140E003002000B585B001
:1051E00000BF2048806940F040001E4988610846A1
:1051F000806900F04000009000BF00BF00BF08467B
:10520000806940F0200088610846806900F0200035
:10521000009000BF00BF00BF0846806940F0040056
:1052200088610846806900F00400009000BF00BF5C
:105230004FF44040019000200290039001A90A48D9
:10524000FCF748FA4FF48070019001A90748FCF779
:1052500041FA4FF40040019001A90548FCF73AFAE1
:1052600005B000BD001002400014014000180140CC
:105270000008014070B504460D4629462046FCF75B
:10528000C9FB80B90A20FFF71DFE29462046FCF71E
:10529000C1FB40B900BF29462046FCF7BBFB0028F4
:1052A000F9D0012070BD0020FCE7000018B10021FA
:1052B000034A116002E00121014A116070470000B9
:1052C000B401224200B585B000BF0F48806940F0AC
:1052D00010000D4988610846806900F010000090B8
:1052E00000BF00BF4FF40050019001200290022047
:1052F000049001A90548FCF7EDF901225103034888
:10530000FCF790FB05B000BD00100240001001400A
:105310001CB5FCF79FFB4FF4E01000F05FF848204D
:10532000FFF7BCFDFFF7CEFFFFF758FF4FF4E1306A
:1053300000F088F81FA0FAF78BFFFFF717FF312165
:1053400041F6BB30FFF794FDFFF77EFEFFF726FE28
:105350000120FFF757F913E04FF480711948FFF768
:1053600089FF18B10420FFF7B7FB0AE04FF4804132
:105370001548FFF77FFF18B10320FFF7ADFB00E0F2
:10538000EAE700BF14E01148006800F00BFB044698
:105390000D460F48006800F005FB064632460B46F6
:1053A0000CA0CDE90045FAF753FF3220FFF78AFD44
:1053B000E9E7000048656C6C6F2053544D33320DA3
:1053C0000A0000000018014000140140B000002055
:1053D000AC00002025662C25660D0A0030B58FB084
:1053E00005460124282105A8FAF7AEFF14216846D6
:1053F000FAF7AAFF0120059000040690002007900C
:1054000002200C90C1030D910E9505A8FCF7F6FC47
:1054100004460CB100BFFEE70F200090022001906F
:10542000002002904FF4806003900020049002213D
:105430006846FCF7ADFB04460CB100BFFEE70FB0B9
:1054400030BD000010B504461348144908600846F2
:10545000446000218160C160016181610C21416172
:10546000FDF7BCFA01220E490C48FDF79FFB0D48E1
:105470000D4908600846446000218160C1600161F7
:1054800081610C214161FDF7A9FA01220749064813
:10549000FDF78CFB10BD00000038014060030020C8
:1054A00084000020004C0040A00300208500002064
:1054B00010B500290AD00878002807D0054878449C
:1054C000FBF732FB002801D0002010BD02487844D1
:1054D00010BD00006A0C0000620C000010B591EADB
:1054E000030F48BF83F0004300F17A81841A71EB07
:1054F000030C05D2121943EB0C03001B61EB0C01EA
:10550000DFF824E14FEA1154A4EB135C1EEA430FC9
:1055100018BF9EEA445F73D023EA0E03DCF1200E2D
:1055200021EA045143F4801332D322FA0CFE10EB2B
:105530000E0023FA0CFE41EB0E01CCF1200E03FA13
:105540000EFE10EB0E0051F10001B1F5801FCCF101
:10555000200E32D201EB045112FA0EF2BDE81040D7
:1055600058BF7047401C38BF5FEA420218BF7047FF
:10557000002814BF20F0010041F100014FEA41036F
:1055800013F5001F38BF7047A1F1C04100F0E4B827
:10559000012A43EB0302ACF1200CDCF11F0E32BFF9
:1055A0004FF0000E23FA0CF310EB030041EB045113
:1055B000B4EB115FD0D0A1EB045101F58011490883
:1055C0005FEA300001EB04510ED350F1000038BF08
:1055D00012FA0EFE08D1BDE81040C9E7401C38BFE2
:1055E0005FEA4202CAD1C3E7BDE810404FEA410377
:1055F00013F5001F38BF7047A1F1C04100F0ACB8EF
:105600009EEA445F08D011EA5E0FBDE8104004BF77
:1056100001F0004100207047BDE8104070B500F077
:105620004DF800BF64FBBE3E0000E0FF491058BFCC
:10563000C1F140415B1058BFC3F140438B42EFF3CF
:105640000080704751EA030C17D41CF5801F58BF27
:10565000BCF5801F00F10680994218BF704708BF53
:105660009042704707D711F5801F58BF13F5801F70
:1056700019D499427047894270471CF5801F08D59C
:10568000BCF5801FF7D58B4218BF704708BF824218
:1056900070474FF4001C1CEB410F38BF1CEB430F4D
:1056A00001D28B42704770B500F008F8922449008F
:1056B0004FF000514FF08053FFF7B8BF0EF1020ECC
:1056C0002EF0030E5EF8046B364205D4012A43EB3C
:1056D000030515F5001F12D8012841EB010C1CF53C
:1056E000001F0CD80ED14FEAD17C15F5001F0CEB32
:1056F0004C0C0CF1020C08BF4CEBD37C04E04FF0D7
:10570000080C01E04FEAD37C0CEB4C0526FA05F6B9
:1057100006F00706B6F1040C06D20EEB860CBDE8C7
:1057200070404CF0010C6047DFE80CF0090B0202FE
:105730004FF000414FF00000A1F5002170BD194667
:105740001046012851EB010418BFD4F5001484BFA2
:10575000002001F0004170BD0808A0F500114FEADB
:105760003101704753EA010C17D41CF5801F58BF54
:10577000BCF5801F00F106808B4218BF704708BF40
:105780008242704707D713F5801F58BF11F5801F5D
:1057900019D48B4270479B4270471CF5801F08D577
:1057A000BCF5801FF7D5994218BF704708BF9042DB
:1057B00070474FF4001C1CEB430F38BF1CEB410F2C
:1057C00001D2994270470FB40CBC03BCFFF76BBF0A
:1057D00010B591EA030F48BF83F000433FF586AE52
:1057E000841A71EB030C07D212198CF0004C43EBB6
:1057F0000C03001B61EB0C01DFF8A4E14FEA11542C
:10580000A4EB135C1EEA430F18BF9EEA445F00F04E
:10581000B08023EA6E03524221EA0451C3EB6E03C7
:1058200038BF5B1EDCF1200E25D322FA0CFE10EBF4
:105830000E0043FA0CFE41EB0E01CCF1200E03FAF0
:105840000EFE10EB0E0051F10001CCF1200E29D418
:1058500012FA0EF201EB0451BDE8104058BF704738
:10586000401C1CBFB2F1004F704700280CBF491C00
:1058700020F00100704712EB020E43EB030218BF49
:105880004FF0010E4EEA4202ACF1200CDCF11E0E8C
:1058900054D943FA0CFE10EB0E0051F1FF31CCF15C
:1058A0001E0ED5D50EF1010E12FA0EFE404141EB4F
:1058B000010101EB445C5FEA5C5C10D910EBDE7027
:1058C00001EB045138BFBEF1004FBDE8104018BFD6
:1058D000704700280CBF491C20F00100704730D2EF
:1058E0004FEAD42C11F5001124F400641BD0B1FA56
:1058F00081F20B3AA41AA41ED2F12003914030FA8F
:1059000003F31943904001EBCC71002C01EB0451DF
:10591000BDE81040A8BF704701F1C0414FF0000042
:1059200001F000417047B0FA80F310FA03F100D1A2
:1059300010BDE41A173C4805C90AE4E701EB04511D
:1059400010BD491001EB0451BDE810404FEA300092
:1059500002E04FF0000170474A0008BF0042F8D053
:10596000B2F5001F28BF704701F000414FF0000062
:1059700070479EEA445F07D011EA5E0FBDE8104011
:1059800004BF002100207047BDE8104070B5FFF74C
:1059900095FE00BF40DFF63E83F0004110467047A1
:1059A0000000E0FF43004FEAD30C4FEA3C0C4340B9
:1059B0001FBF40070CF1605113F0FE4F70471CF001
:1059C000006F03D100200CF0004170470CF0004341
:1059D00043EA507010B540EACC0000F040FA00BF36
:1059E000000000924FEA0001FFF7B6BE4FF0004101
:1059F0004FF00000A1F500217047000090EA010F70
:105A000048BF81F0004100F1B882421A3CBF801AC1
:105A100089184FEAD0524FF07F4C1CEA410FA2EB9D
:105A2000D15318BF9CEA026F00F03B804FF0004C4E
:105A30004CEA00204CEA012121FA03FC10EB0C0C8B
:105A40001ED202F1FF325FEA1C2040EBC25038BF89
:105A500070471CF07F0F4FEA400C18BFBCF17F4F1E
:105A600038BF7047C3F12003994008BF20F0010000
:105A7000BCF17F4F38BF7047A0F1C04000F035BA8D
:105A80004FEA3C00000A40EBC25028BF1CF0FF0F59
:105A90004FEA400CE6D018BFBCF17F4F38BF7047CB
:105AA000EAE79CEA026F05D010EA5C0F08BF00F03D
:105AB0000040704710B500F0D2F900BF64FBBE3E55
:105AC000401058BFC0F14040491058BFC1F140419B
:105AD0008142EFF3008070474FF47F0C1CEAD01234
